{
  "_format": "hh-sol-artifact-1",
  "contractName": "Coinflip",
  "sourceName": "contracts/Coinflip.sol",
  "abi": [
    {
      "anonymous": false,
      "inputs": [
        {
          "indexed": false,
          "internalType": "address",
          "name": "_sender",
          "type": "address"
        }
      ],
      "name": "MyEvent",
      "type": "event"
    },
    {
      "anonymous": false,
      "inputs": [
        {
          "indexed": true,
          "internalType": "address",
          "name": "previousOwner",
          "type": "address"
        },
        {
          "indexed": true,
          "internalType": "address",
          "name": "newOwner",
          "type": "address"
        }
      ],
      "name": "OwnershipTransferred",
      "type": "event"
    },
    {
      "anonymous": false,
      "inputs": [
        {
          "indexed": false,
          "internalType": "address",
          "name": "_gameOwner",
          "type": "address"
        },
        {
          "indexed": false,
          "internalType": "uint256",
          "name": "_amountBet",
          "type": "uint256"
        },
        {
          "indexed": false,
          "internalType": "uint256",
          "name": "launchedTime",
          "type": "uint256"
        }
      ],
      "name": "gameCreated",
      "type": "event"
    },
    {
      "anonymous": false,
      "inputs": [
        {
          "indexed": false,
          "internalType": "address",
          "name": "_gameOwner",
          "type": "address"
        },
        {
          "indexed": false,
          "internalType": "address",
          "name": "_playerThatJoined",
          "type": "address"
        },
        {
          "indexed": false,
          "internalType": "uint256",
          "name": "_winnableAmount",
          "type": "uint256"
        },
        {
          "indexed": false,
          "internalType": "address",
          "name": "_winner",
          "type": "address"
        }
      ],
      "name": "gamePlayed",
      "type": "event"
    },
    {
      "inputs": [],
      "name": "createGame",
      "outputs": [],
      "stateMutability": "payable",
      "type": "function"
    },
    {
      "inputs": [],
      "name": "emitEvent",
      "outputs": [],
      "stateMutability": "nonpayable",
      "type": "function"
    },
    {
      "inputs": [],
      "name": "getBalance",
      "outputs": [
        {
          "internalType": "uint256",
          "name": "",
          "type": "uint256"
        }
      ],
      "stateMutability": "view",
      "type": "function"
    },
    {
      "inputs": [
        {
          "internalType": "address",
          "name": "_gameOwner",
          "type": "address"
        }
      ],
      "name": "getGameInfos",
      "outputs": [
        {
          "components": [
            {
              "internalType": "uint256",
              "name": "amount",
              "type": "uint256"
            },
            {
              "internalType": "uint256",
              "name": "launchedTime",
              "type": "uint256"
            },
            {
              "internalType": "enum Coinflip.game_state",
              "name": "gameState",
              "type": "uint8"
            }
          ],
          "internalType": "struct Coinflip.Game",
          "name": "",
          "type": "tuple"
        }
      ],
      "stateMutability": "view",
      "type": "function"
    },
    {
      "inputs": [],
      "name": "owner",
      "outputs": [
        {
          "internalType": "address",
          "name": "",
          "type": "address"
        }
      ],
      "stateMutability": "view",
      "type": "function"
    },
    {
      "inputs": [
        {
          "internalType": "address payable",
          "name": "_gameOwner",
          "type": "address"
        }
      ],
      "name": "play",
      "outputs": [],
      "stateMutability": "payable",
      "type": "function"
    },
    {
      "inputs": [],
      "name": "renounceOwnership",
      "outputs": [],
      "stateMutability": "nonpayable",
      "type": "function"
    },
    {
      "inputs": [
        {
          "internalType": "address",
          "name": "newOwner",
          "type": "address"
        }
      ],
      "name": "transferOwnership",
      "outputs": [],
      "stateMutability": "nonpayable",
      "type": "function"
    },
    {
      "inputs": [],
      "name": "widthdrawComission",
      "outputs": [],
      "stateMutability": "nonpayable",
      "type": "function"
    }
  ],
  "bytecode": "0x608060405234801561001057600080fd5b5061002d61002261003260201b60201c565b61003a60201b60201c565b6100fe565b600033905090565b60008060009054906101000a900473ffffffffffffffffffffffffffffffffffffffff169050816000806101000a81548173ffffffffffffffffffffffffffffffffffffffff021916908373ffffffffffffffffffffffffffffffffffffffff1602179055508173ffffffffffffffffffffffffffffffffffffffff168173ffffffffffffffffffffffffffffffffffffffff167f8be0079c531659141344cd1fd0a4f28419497f9722a3daafe3b4186f6b6457e060405160405180910390a35050565b611acd8061010d6000396000f3fe6080604052600436106100865760003560e01c80638da5cb5b116100595780638da5cb5b146100ee5780639988cffc14610119578063d0aaa3f314610156578063e492814f1461016d578063f2fde38b1461018957610086565b806312065fe01461008b578063715018a6146100b65780637255d729146100cd5780637b0cb839146100d7575b600080fd5b34801561009757600080fd5b506100a06101b2565b6040516100ad9190610fa0565b60405180910390f35b3480156100c257600080fd5b506100cb6101c7565b005b6100d56101db565b005b3480156100e357600080fd5b506100ec61041f565b005b3480156100fa57600080fd5b50610103610458565b6040516101109190610ffc565b60405180910390f35b34801561012557600080fd5b50610140600480360381019061013b9190611048565b610481565b60405161014d919061113d565b60405180910390f35b34801561016257600080fd5b5061016b610529565b005b61018760048036038101906101829190611196565b6105d7565b005b34801561019557600080fd5b506101b060048036038101906101ab9190611048565b610b8e565b005b6000600154476101c291906111f2565b905090565b6101cf610c11565b6101d96000610c8f565b565b6103e83410156101ea34610d53565b6040516020016101fa919061132f565b6040516020818303038152906040529061024a576040517f08c379a000000000000000000000000000000000000000000000000000000000815260040161024191906113bb565b60405180910390fd5b506000600260003373ffffffffffffffffffffffffffffffffffffffff1673ffffffffffffffffffffffffffffffffffffffff16815260200190815260200160002060010154146102d0576040517f08c379a00000000000000000000000000000000000000000000000000000000081526004016102c79061144f565b60405180910390fd5b34600260003373ffffffffffffffffffffffffffffffffffffffff1673ffffffffffffffffffffffffffffffffffffffff1681526020019081526020016000206000018190555042600260003373ffffffffffffffffffffffffffffffffffffffff1673ffffffffffffffffffffffffffffffffffffffff168152602001908152602001600020600101819055506000600260003373ffffffffffffffffffffffffffffffffffffffff1673ffffffffffffffffffffffffffffffffffffffff16815260200190815260200160002060020160006101000a81548160ff021916908360028111156103c4576103c3611084565b5b021790555034600160008282546103db919061146f565b925050819055507ffbd6e3763c89ce7b1fba8c7a91ded712d98ed417a6513c853138e51de38ccf3d333442604051610415939291906114a3565b60405180910390a1565b7f492e34c7da2a87c57444aa0f6143558999bceec63065f04557cfb20932e0d5913360405161044e9190610ffc565b60405180910390a1565b60008060009054906101000a900473ffffffffffffffffffffffffffffffffffffffff16905090565b610489610f54565b600260008373ffffffffffffffffffffffffffffffffffffffff1673ffffffffffffffffffffffffffffffffffffffff16815260200190815260200160002060405180606001604052908160008201548152602001600182015481526020016002820160009054906101000a900460ff16600281111561050c5761050b611084565b5b600281111561051e5761051d611084565b5b815250509050919050565b610531610c11565b60006001544761054191906111f2565b11610581576040517f08c379a000000000000000000000000000000000000000000000000000000000815260040161057890611526565b60405180910390fd5b3373ffffffffffffffffffffffffffffffffffffffff166108fc600154476105a991906111f2565b9081150290604051600060405180830381858888f193505050501580156105d4573d6000803e3d6000fd5b50565b3373ffffffffffffffffffffffffffffffffffffffff168173ffffffffffffffffffffffffffffffffffffffff1603610645576040517f08c379a000000000000000000000000000000000000000000000000000000000815260040161063c90611592565b60405180910390fd5b6000600260008373ffffffffffffffffffffffffffffffffffffffff1673ffffffffffffffffffffffffffffffffffffffff16815260200190815260200160002060010154036106ca576040517f08c379a00000000000000000000000000000000000000000000000000000000081526004016106c1906115fe565b60405180910390fd5b600260008273ffffffffffffffffffffffffffffffffffffffff1673ffffffffffffffffffffffffffffffffffffffff16815260200190815260200160002060000154341461074e576040517f08c379a0000000000000000000000000000000000000000000000000000000008152600401610745906116b6565b60405180910390fd5b3460016000828254610760919061146f565b9250508190555034600260008373ffffffffffffffffffffffffffffffffffffffff1673ffffffffffffffffffffffffffffffffffffffff16815260200190815260200160002060000160008282546107b9919061146f565b925050819055506001600260008373ffffffffffffffffffffffffffffffffffffffff1673ffffffffffffffffffffffffffffffffffffffff16815260200190815260200160002060020160006101000a81548160ff0219169083600281111561082657610825611084565b5b021790555060006108378233610eb3565b90508173ffffffffffffffffffffffffffffffffffffffff168173ffffffffffffffffffffffffffffffffffffffff160361090e578173ffffffffffffffffffffffffffffffffffffffff166108fc6108dd6108d6600260008773ffffffffffffffffffffffffffffffffffffffff1673ffffffffffffffffffffffffffffffffffffffff168152602001908152602001600020600001546064610f20565b6063610f36565b9081150290604051600060405180830381858888f19350505050158015610908573d6000803e3d6000fd5b506109e0565b3373ffffffffffffffffffffffffffffffffffffffff168173ffffffffffffffffffffffffffffffffffffffff16036109df573373ffffffffffffffffffffffffffffffffffffffff166108fc6109b26109ab600260008773ffffffffffffffffffffffffffffffffffffffff1673ffffffffffffffffffffffffffffffffffffffff168152602001908152602001600020600001546064610f20565b6063610f36565b9081150290604051600060405180830381858888f193505050501580156109dd573d6000803e3d6000fd5b505b5b60028060008473ffffffffffffffffffffffffffffffffffffffff1673ffffffffffffffffffffffffffffffffffffffff16815260200190815260200160002060020160006101000a81548160ff02191690836002811115610a4557610a44611084565b5b0217905550600260008373ffffffffffffffffffffffffffffffffffffffff1673ffffffffffffffffffffffffffffffffffffffff1681526020019081526020016000206000015460016000828254610a9e91906111f2565b925050819055507f99165b727e85aed22e2f75ec47a7e08dfb96972d43cded7952758fa4c83a0e008233600260008673ffffffffffffffffffffffffffffffffffffffff1673ffffffffffffffffffffffffffffffffffffffff1681526020019081526020016000206000015484604051610b1c9493929190611735565b60405180910390a1600260008373ffffffffffffffffffffffffffffffffffffffff1673ffffffffffffffffffffffffffffffffffffffff16815260200190815260200160002060008082016000905560018201600090556002820160006101000a81549060ff021916905550505050565b610b96610c11565b600073ffffffffffffffffffffffffffffffffffffffff168173ffffffffffffffffffffffffffffffffffffffff1603610c05576040517f08c379a0000000000000000000000000000000000000000000000000000000008152600401610bfc906117ec565b60405180910390fd5b610c0e81610c8f565b50565b610c19610f4c565b73ffffffffffffffffffffffffffffffffffffffff16610c37610458565b73ffffffffffffffffffffffffffffffffffffffff1614610c8d576040517f08c379a0000000000000000000000000000000000000000000000000000000008152600401610c8490611858565b60405180910390fd5b565b60008060009054906101000a900473ffffffffffffffffffffffffffffffffffffffff169050816000806101000a81548173ffffffffffffffffffffffffffffffffffffffff021916908373ffffffffffffffffffffffffffffffffffffffff1602179055508173ffffffffffffffffffffffffffffffffffffffff168173ffffffffffffffffffffffffffffffffffffffff167f8be0079c531659141344cd1fd0a4f28419497f9722a3daafe3b4186f6b6457e060405160405180910390a35050565b606060008203610d9a576040518060400160405280600181526020017f30000000000000000000000000000000000000000000000000000000000000008152509050610eae565b600082905060005b60008214610dcc578080610db590611878565b915050600a82610dc591906118ef565b9150610da2565b60008167ffffffffffffffff811115610de857610de7611920565b5b6040519080825280601f01601f191660200182016040528015610e1a5781602001600182028036833780820191505090505b5090505b60008514610ea757600182610e3391906111f2565b9150600a85610e42919061194f565b6030610e4e919061146f565b60f81b818381518110610e6457610e63611980565b5b60200101907effffffffffffffffffffffffffffffffffffffffffffffffffffffffffffff1916908160001a905350600a85610ea091906118ef565b9450610e1e565b8093505050505b919050565b6000806002424485604051602001610ecd93929190611a18565b6040516020818303038152906040528051906020012060001c610ef0919061194f565b905060008103610f035783915050610f1a565b60018103610f145782915050610f1a565b60009150505b92915050565b60008183610f2e91906118ef565b905092915050565b60008183610f449190611a55565b905092915050565b600033905090565b6040518060600160405280600081526020016000815260200160006002811115610f8157610f80611084565b5b81525090565b6000819050919050565b610f9a81610f87565b82525050565b6000602082019050610fb56000830184610f91565b92915050565b600073ffffffffffffffffffffffffffffffffffffffff82169050919050565b6000610fe682610fbb565b9050919050565b610ff681610fdb565b82525050565b60006020820190506110116000830184610fed565b92915050565b600080fd5b61102581610fdb565b811461103057600080fd5b50565b6000813590506110428161101c565b92915050565b60006020828403121561105e5761105d611017565b5b600061106c84828501611033565b91505092915050565b61107e81610f87565b82525050565b7f4e487b7100000000000000000000000000000000000000000000000000000000600052602160045260246000fd5b600381106110c4576110c3611084565b5b50565b60008190506110d5826110b3565b919050565b60006110e5826110c7565b9050919050565b6110f5816110da565b82525050565b6060820160008201516111116000850182611075565b5060208201516111246020850182611075565b50604082015161113760408501826110ec565b50505050565b600060608201905061115260008301846110fb565b92915050565b600061116382610fbb565b9050919050565b61117381611158565b811461117e57600080fd5b50565b6000813590506111908161116a565b92915050565b6000602082840312156111ac576111ab611017565b5b60006111ba84828501611181565b91505092915050565b7f4e487b7100000000000000000000000000000000000000000000000000000000600052601160045260246000fd5b60006111fd82610f87565b915061120883610f87565b92508282039050818111156112205761121f6111c3565b5b92915050565b600081905092915050565b7f54686520616d6f756e742070726f7669646564206d757374206265206174206c60008201527f656173742031303030207765692c200000000000000000000000000000000000602082015250565b600061128d602f83611226565b915061129882611231565b602f82019050919050565b600081519050919050565b60005b838110156112cc5780820151818401526020810190506112b1565b60008484015250505050565b60006112e3826112a3565b6112ed8185611226565b93506112fd8185602086016112ae565b80840191505092915050565b7f2070726f76696465640000000000000000000000000000000000000000000000815250565b600061133a82611280565b915061134682846112d8565b915061135182611309565b60098201915081905092915050565b600082825260208201905092915050565b6000601f19601f8301169050919050565b600061138d826112a3565b6113978185611360565b93506113a78185602086016112ae565b6113b081611371565b840191505092915050565b600060208201905081810360008301526113d58184611382565b905092915050565b7f596f752063616e206f6e6c79207374617274206f6e652067616d65206174206160008201527f2074696d65000000000000000000000000000000000000000000000000000000602082015250565b6000611439602583611360565b9150611444826113dd565b604082019050919050565b600060208201905081810360008301526114688161142c565b9050919050565b600061147a82610f87565b915061148583610f87565b925082820190508082111561149d5761149c6111c3565b5b92915050565b60006060820190506114b86000830186610fed565b6114c56020830185610f91565b6114d26040830184610f91565b949350505050565b7f5468657265206973206e6f2066756e647320746f207769746864726177000000600082015250565b6000611510601d83611360565b915061151b826114da565b602082019050919050565b6000602082019050818103600083015261153f81611503565b9050919050565b7f596f752063616e6e6f74206a6f696e20796f7572206f776e2067616d65000000600082015250565b600061157c601d83611360565b915061158782611546565b602082019050919050565b600060208201905081810360008301526115ab8161156f565b9050919050565b7f546869732067616d6520646f65736e2774206578697374000000000000000000600082015250565b60006115e8601783611360565b91506115f3826115b2565b602082019050919050565b60006020820190508181036000830152611617816115db565b9050919050565b7f54686520616d6f756e7420796f752070726f7669646564206973206e6f74206560008201527f7175616c20746f2074686520616d6f756e7420726571756972656420666f722060208201527f746869732067616d650000000000000000000000000000000000000000000000604082015250565b60006116a0604983611360565b91506116ab8261161e565b606082019050919050565b600060208201905081810360008301526116cf81611693565b9050919050565b6000819050919050565b60006116fb6116f66116f184610fbb565b6116d6565b610fbb565b9050919050565b600061170d826116e0565b9050919050565b600061171f82611702565b9050919050565b61172f81611714565b82525050565b600060808201905061174a6000830187611726565b6117576020830186610fed565b6117646040830185610f91565b6117716060830184610fed565b95945050505050565b7f4f776e61626c653a206e6577206f776e657220697320746865207a65726f206160008201527f6464726573730000000000000000000000000000000000000000000000000000602082015250565b60006117d6602683611360565b91506117e18261177a565b604082019050919050565b60006020820190508181036000830152611805816117c9565b9050919050565b7f4f776e61626c653a2063616c6c6572206973206e6f7420746865206f776e6572600082015250565b6000611842602083611360565b915061184d8261180c565b602082019050919050565b6000602082019050818103600083015261187181611835565b9050919050565b600061188382610f87565b91507fffffffffffffffffffffffffffffffffffffffffffffffffffffffffffffffff82036118b5576118b46111c3565b5b600182019050919050565b7f4e487b7100000000000000000000000000000000000000000000000000000000600052601260045260246000fd5b60006118fa82610f87565b915061190583610f87565b925082611915576119146118c0565b5b828204905092915050565b7f4e487b7100000000000000000000000000000000000000000000000000000000600052604160045260246000fd5b600061195a82610f87565b915061196583610f87565b925082611975576119746118c0565b5b828206905092915050565b7f4e487b7100000000000000000000000000000000000000000000000000000000600052603260045260246000fd5b6000819050919050565b6119ca6119c582610f87565b6119af565b82525050565b60008160601b9050919050565b60006119e8826119d0565b9050919050565b60006119fa826119dd565b9050919050565b611a12611a0d82610fdb565b6119ef565b82525050565b6000611a2482866119b9565b602082019150611a3482856119b9565b602082019150611a448284611a01565b601482019150819050949350505050565b6000611a6082610f87565b9150611a6b83610f87565b9250828202611a7981610f87565b91508282048414831517611a9057611a8f6111c3565b5b509291505056fea264697066735822122031b1402ba812325c0388bad8aa02f11a5b15658f1f794e292d74b4a4644f648764736f6c63430008110033",
  "linkReferences": {},
  "deployedLinkReferences": {}
}