{
  "_format": "hh-sol-artifact-1",
  "contractName": "Roulette",
  "sourceName": "contracts/Roulette.sol",
  "abi": [
    {
      "inputs": [],
      "stateMutability": "payable",
      "type": "constructor"
    },
    {
      "anonymous": false,
      "inputs": [
        {
          "indexed": false,
          "internalType": "uint256",
          "name": "_winnerCoin",
          "type": "uint256"
        },
        {
          "indexed": false,
          "internalType": "uint256",
          "name": "_amountWon",
          "type": "uint256"
        },
        {
          "indexed": false,
          "internalType": "uint256",
          "name": "_amountLost",
          "type": "uint256"
        }
      ],
      "name": "gameHasEnded",
      "type": "event"
    },
    {
      "anonymous": false,
      "inputs": [
        {
          "indexed": false,
          "internalType": "address",
          "name": "_player",
          "type": "address"
        },
        {
          "indexed": false,
          "internalType": "uint256",
          "name": "_amount",
          "type": "uint256"
        }
      ],
      "name": "playerHasWin",
      "type": "event"
    },
    {
      "anonymous": false,
      "inputs": [
        {
          "indexed": false,
          "internalType": "address",
          "name": "_player",
          "type": "address"
        },
        {
          "indexed": false,
          "internalType": "enum Roulette.coin",
          "name": "_betCoin",
          "type": "uint8"
        },
        {
          "indexed": false,
          "internalType": "uint256",
          "name": "_amountBet",
          "type": "uint256"
        }
      ],
      "name": "playerhasJoin",
      "type": "event"
    },
    {
      "inputs": [],
      "name": "addFunds",
      "outputs": [],
      "stateMutability": "payable",
      "type": "function"
    },
    {
      "inputs": [],
      "name": "destroy",
      "outputs": [],
      "stateMutability": "nonpayable",
      "type": "function"
    },
    {
      "inputs": [],
      "name": "drawWinners",
      "outputs": [],
      "stateMutability": "payable",
      "type": "function"
    },
    {
      "inputs": [],
      "name": "gameState",
      "outputs": [
        {
          "internalType": "enum Roulette.game_state",
          "name": "",
          "type": "uint8"
        }
      ],
      "stateMutability": "view",
      "type": "function"
    },
    {
      "inputs": [],
      "name": "getBalance",
      "outputs": [
        {
          "internalType": "uint256",
          "name": "",
          "type": "uint256"
        }
      ],
      "stateMutability": "view",
      "type": "function"
    },
    {
      "inputs": [],
      "name": "getRemainingTime",
      "outputs": [
        {
          "internalType": "uint256",
          "name": "",
          "type": "uint256"
        }
      ],
      "stateMutability": "view",
      "type": "function"
    },
    {
      "inputs": [
        {
          "internalType": "enum Roulette.coin",
          "name": "_betCoin",
          "type": "uint8"
        }
      ],
      "name": "join",
      "outputs": [],
      "stateMutability": "payable",
      "type": "function"
    },
    {
      "inputs": [
        {
          "internalType": "uint256",
          "name": "",
          "type": "uint256"
        }
      ],
      "name": "players",
      "outputs": [
        {
          "internalType": "address payable",
          "name": "player_address",
          "type": "address"
        },
        {
          "internalType": "enum Roulette.coin",
          "name": "betCoin",
          "type": "uint8"
        },
        {
          "internalType": "uint256",
          "name": "amount",
          "type": "uint256"
        }
      ],
      "stateMutability": "view",
      "type": "function"
    },
    {
      "inputs": [
        {
          "internalType": "uint256",
          "name": "",
          "type": "uint256"
        }
      ],
      "name": "winners",
      "outputs": [
        {
          "internalType": "address payable",
          "name": "player_address",
          "type": "address"
        },
        {
          "internalType": "enum Roulette.coin",
          "name": "betCoin",
          "type": "uint8"
        },
        {
          "internalType": "uint256",
          "name": "amount",
          "type": "uint256"
        }
      ],
      "stateMutability": "view",
      "type": "function"
    },
    {
      "inputs": [],
      "name": "withdraw",
      "outputs": [],
      "stateMutability": "nonpayable",
      "type": "function"
    }
  ],
  "bytecode": "0x60806040523460018190555060015460028190555033600360006101000a81548173ffffffffffffffffffffffffffffffffffffffff021916908373ffffffffffffffffffffffffffffffffffffffff1602179055506115b4806100646000396000f3fe6080604052600436106100915760003560e01c8063b8211d1e11610059578063b8211d1e14610138578063cb3e9b8414610142578063d1f9c24d1461015e578063efb98bcf14610189578063f71d96cb146101b457610091565b806312065fe0146100965780633ccfd60b146100c157806383197ef0146100d8578063a26759cb146100ef578063a2fb1175146100f9575b600080fd5b3480156100a257600080fd5b506100ab6101f3565b6040516100b89190610cd6565b60405180910390f35b3480156100cd57600080fd5b506100d66101fb565b005b3480156100e457600080fd5b506100ed6102f3565b005b6100f7610388565b005b34801561010557600080fd5b50610120600480360381019061011b9190610d22565b6103fd565b60405161012f93929190610e07565b60405180910390f35b610140610464565b005b61015c60048036038101906101579190610e63565b61083f565b005b34801561016a57600080fd5b50610173610b64565b6040516101809190610ed8565b60405180910390f35b34801561019557600080fd5b5061019e610b7f565b6040516101ab9190610cd6565b60405180910390f35b3480156101c057600080fd5b506101db60048036038101906101d69190610d22565b610bd8565b6040516101ea93929190610e07565b60405180910390f35b600047905090565b600360009054906101000a900473ffffffffffffffffffffffffffffffffffffffff1673ffffffffffffffffffffffffffffffffffffffff163373ffffffffffffffffffffffffffffffffffffffff161461025557600080fd5b6002546001541161029b576040517f08c379a000000000000000000000000000000000000000000000000000000000815260040161029290610f50565b60405180910390fd5b3373ffffffffffffffffffffffffffffffffffffffff166108fc6002546001546102c59190610f9f565b9081150290604051600060405180830381858888f193505050501580156102f0573d6000803e3d6000fd5b50565b600360009054906101000a900473ffffffffffffffffffffffffffffffffffffffff1673ffffffffffffffffffffffffffffffffffffffff163373ffffffffffffffffffffffffffffffffffffffff161461034d57600080fd5b600360009054906101000a900473ffffffffffffffffffffffffffffffffffffffff1673ffffffffffffffffffffffffffffffffffffffff16ff5b600360009054906101000a900473ffffffffffffffffffffffffffffffffffffffff1673ffffffffffffffffffffffffffffffffffffffff163373ffffffffffffffffffffffffffffffffffffffff16146103e257600080fd5b34600160008282546103f49190610fd3565b92505081905550565b6005818154811061040d57600080fd5b90600052602060002090600202016000915090508060000160009054906101000a900473ffffffffffffffffffffffffffffffffffffffff16908060000160149054906101000a900460ff16908060010154905083565b426000541115801561047857506000805414155b6104b7576040517f08c379a00000000000000000000000000000000000000000000000000000000081526004016104ae90611079565b60405180910390fd5b600060048054905090506000602942446040516020016104d89291906110ba565b6040516020818303038152906040528051906020012060001c6104fb9190611115565b9050600080600080600085036105185760019350600e925061055e565b6001851015801561052a575060148511155b1561053c57600093506002925061055d565b6015851015801561054e575060288511155b1561055c5760029350600292505b5b5b60005b868110156107db5760006004828154811061057f5761057e611146565b5b90600052602060002090600202016040518060600160405290816000820160009054906101000a900473ffffffffffffffffffffffffffffffffffffffff1673ffffffffffffffffffffffffffffffffffffffff1673ffffffffffffffffffffffffffffffffffffffff1681526020016000820160149054906101000a900460ff16600281111561061357610612610d90565b5b600281111561062557610624610d90565b5b81526020016001820154815250509050858160200151600281111561064d5761064c610d90565b5b036107b45760008560ff1682604001516106679190611175565b905080856106759190610fd3565b9450600582908060018154018082558091505060019003906000526020600020906002020160009091909190915060008201518160000160006101000a81548173ffffffffffffffffffffffffffffffffffffffff021916908373ffffffffffffffffffffffffffffffffffffffff16021790555060208201518160000160146101000a81548160ff0219169083600281111561071557610714610d90565b5b0217905550604082015181600101555050816000015173ffffffffffffffffffffffffffffffffffffffff166108fc829081150290604051600060405180830381858888f19350505050158015610770573d6000803e3d6000fd5b507f18e74f51a9268a84028422332c6614814d0ece39cd111cdfda4c209c5ee9e1958260000151826040516107a6929190611216565b60405180910390a1506107c7565b8060400151836107c49190610fd3565b92505b5080806107d39061123f565b915050610561565b507f1fc8f8964e4db3e3f99c0d83c7fd47ac2982001e02817804c1443c8dd5faa70f84838360405161080f93929190611287565b60405180910390a1600460006108259190610c3f565b600560006108339190610c3f565b60008055505050505050565b60003411610882576040517f08c379a000000000000000000000000000000000000000000000000000000000815260040161087990611330565b60405180910390fd5b60008054148061089f575042603c60005461089d9190610fd3565b115b6108de576040517f08c379a00000000000000000000000000000000000000000000000000000000081526004016108d59061139c565b60405180910390fd5b60006004805490509050601481111561092c576040517f08c379a00000000000000000000000000000000000000000000000000000000081526004016109239061142e565b60405180910390fd5b6000805b828110156109c8573373ffffffffffffffffffffffffffffffffffffffff166004828154811061096357610962611146565b5b906000526020600020906002020160000160009054906101000a900473ffffffffffffffffffffffffffffffffffffffff1673ffffffffffffffffffffffffffffffffffffffff16036109b557600191505b80806109c09061123f565b915050610930565b506000151581151514610a10576040517f08c379a0000000000000000000000000000000000000000000000000000000008152600401610a079061149a565b60405180910390fd5b600060405180606001604052803373ffffffffffffffffffffffffffffffffffffffff168152602001856002811115610a4c57610a4b610d90565b5b8152602001348152509050600481908060018154018082558091505060019003906000526020600020906002020160009091909190915060008201518160000160006101000a81548173ffffffffffffffffffffffffffffffffffffffff021916908373ffffffffffffffffffffffffffffffffffffffff16021790555060208201518160000160146101000a81548160ff02191690836002811115610af557610af4610d90565b5b02179055506040820151816001015550507f34027cec673b2a98762622a98227df379a1777adcf5700f8447ac895a6ab72cd338534604051610b39939291906114db565b60405180910390a16000805403610b5e57603c42610b579190610fd3565b6000819055505b50505050565b600080544211610b775760019050610b7c565b600090505b90565b60008060005403610bc5576040517f08c379a0000000000000000000000000000000000000000000000000000000008152600401610bbc9061155e565b60405180910390fd5b42600054610bd39190610f9f565b905090565b60048181548110610be857600080fd5b90600052602060002090600202016000915090508060000160009054906101000a900473ffffffffffffffffffffffffffffffffffffffff16908060000160149054906101000a900460ff16908060010154905083565b5080546000825560020290600052602060002090810190610c609190610c63565b50565b5b80821115610cb957600080820160006101000a81549073ffffffffffffffffffffffffffffffffffffffff02191690556000820160146101000a81549060ff0219169055600182016000905550600201610c64565b5090565b6000819050919050565b610cd081610cbd565b82525050565b6000602082019050610ceb6000830184610cc7565b92915050565b600080fd5b610cff81610cbd565b8114610d0a57600080fd5b50565b600081359050610d1c81610cf6565b92915050565b600060208284031215610d3857610d37610cf1565b5b6000610d4684828501610d0d565b91505092915050565b600073ffffffffffffffffffffffffffffffffffffffff82169050919050565b6000610d7a82610d4f565b9050919050565b610d8a81610d6f565b82525050565b7f4e487b7100000000000000000000000000000000000000000000000000000000600052602160045260246000fd5b60038110610dd057610dcf610d90565b5b50565b6000819050610de182610dbf565b919050565b6000610df182610dd3565b9050919050565b610e0181610de6565b82525050565b6000606082019050610e1c6000830186610d81565b610e296020830185610df8565b610e366040830184610cc7565b949350505050565b60038110610e4b57600080fd5b50565b600081359050610e5d81610e3e565b92915050565b600060208284031215610e7957610e78610cf1565b5b6000610e8784828501610e4e565b91505092915050565b60028110610ea157610ea0610d90565b5b50565b6000819050610eb282610e90565b919050565b6000610ec282610ea4565b9050919050565b610ed281610eb7565b82525050565b6000602082019050610eed6000830184610ec9565b92915050565b600082825260208201905092915050565b7f4e6f7468696e6720746f20776974686472617700000000000000000000000000600082015250565b6000610f3a601383610ef3565b9150610f4582610f04565b602082019050919050565b60006020820190508181036000830152610f6981610f2d565b9050919050565b7f4e487b7100000000000000000000000000000000000000000000000000000000600052601160045260246000fd5b6000610faa82610cbd565b9150610fb583610cbd565b9250828203905081811115610fcd57610fcc610f70565b5b92915050565b6000610fde82610cbd565b9150610fe983610cbd565b925082820190508082111561100157611000610f70565b5b92915050565b7f5468652067616d65206973206e6569746865722073746172746564206f72206660008201527f696e69736865642e000000000000000000000000000000000000000000000000602082015250565b6000611063602883610ef3565b915061106e82611007565b604082019050919050565b6000602082019050818103600083015261109281611056565b9050919050565b6000819050919050565b6110b46110af82610cbd565b611099565b82525050565b60006110c682856110a3565b6020820191506110d682846110a3565b6020820191508190509392505050565b7f4e487b7100000000000000000000000000000000000000000000000000000000600052601260045260246000fd5b600061112082610cbd565b915061112b83610cbd565b92508261113b5761113a6110e6565b5b828206905092915050565b7f4e487b7100000000000000000000000000000000000000000000000000000000600052603260045260246000fd5b600061118082610cbd565b915061118b83610cbd565b925082820261119981610cbd565b915082820484148315176111b0576111af610f70565b5b5092915050565b6000819050919050565b60006111dc6111d76111d284610d4f565b6111b7565b610d4f565b9050919050565b60006111ee826111c1565b9050919050565b6000611200826111e3565b9050919050565b611210816111f5565b82525050565b600060408201905061122b6000830185611207565b6112386020830184610cc7565b9392505050565b600061124a82610cbd565b91507fffffffffffffffffffffffffffffffffffffffffffffffffffffffffffffffff820361127c5761127b610f70565b5b600182019050919050565b600060608201905061129c6000830186610cc7565b6112a96020830185610cc7565b6112b66040830184610cc7565b949350505050565b7f596f752063616e6e6f74206a6f696e207468652067616d652077697468206e6f60008201527f2066756e64730000000000000000000000000000000000000000000000000000602082015250565b600061131a602683610ef3565b9150611325826112be565b604082019050919050565b600060208201905081810360008301526113498161130d565b9050919050565b7f47616d6520657870697265640000000000000000000000000000000000000000600082015250565b6000611386600c83610ef3565b915061139182611350565b602082019050919050565b600060208201905081810360008301526113b581611379565b9050919050565b7f546f6f206d616e7920706c617965727320696e20746869732067616d6520286d60008201527f6178203230290000000000000000000000000000000000000000000000000000602082015250565b6000611418602683610ef3565b9150611423826113bc565b604082019050919050565b600060208201905081810360008301526114478161140b565b9050919050565b7f596f752063616e6e6f74206a6f696e20796f7572206f776e2067616d65000000600082015250565b6000611484601d83610ef3565b915061148f8261144e565b602082019050919050565b600060208201905081810360008301526114b381611477565b9050919050565b60006114c582610d4f565b9050919050565b6114d5816114ba565b82525050565b60006060820190506114f060008301866114cc565b6114fd6020830185610df8565b61150a6040830184610cc7565b949350505050565b7f4e6f2067616d6520696e2070726f677265737300000000000000000000000000600082015250565b6000611548601383610ef3565b915061155382611512565b602082019050919050565b600060208201905081810360008301526115778161153b565b905091905056fea2646970667358221220ee2ce5052598f7caf3852c5cdc583d30a89313c071c599ab4fa5ca3b09c0191964736f6c63430008110033",
  "linkReferences": {},
  "deployedLinkReferences": {}
}